{
  "_format": "hh-sol-artifact-1",
  "contractName": "UniversityCert",
  "sourceName": "contracts/UniversityCert.sol",
  "abi": [
    {
      "inputs": [],
      "stateMutability": "nonpayable",
      "type": "constructor"
    },
    {
      "anonymous": false,
      "inputs": [
        {
          "indexed": false,
          "internalType": "uint256",
          "name": "certID",
          "type": "uint256"
        },
        {
          "indexed": false,
          "internalType": "string",
          "name": "studentName",
          "type": "string"
        }
      ],
      "name": "CertificateIssued",
      "type": "event"
    },
    {
      "inputs": [],
      "name": "certificateCount",
      "outputs": [
        {
          "internalType": "uint256",
          "name": "",
          "type": "uint256"
        }
      ],
      "stateMutability": "view",
      "type": "function"
    },
    {
      "inputs": [
        {
          "internalType": "uint256",
          "name": "",
          "type": "uint256"
        }
      ],
      "name": "certificates",
      "outputs": [
        {
          "internalType": "string",
          "name": "studentName",
          "type": "string"
        },
        {
          "internalType": "string",
          "name": "courseName",
          "type": "string"
        },
        {
          "internalType": "string",
          "name": "issueDate",
          "type": "string"
        },
        {
          "internalType": "bool",
          "name": "valid",
          "type": "bool"
        }
      ],
      "stateMutability": "view",
      "type": "function"
    },
    {
      "inputs": [],
      "name": "getCertificateCount",
      "outputs": [
        {
          "internalType": "uint256",
          "name": "",
          "type": "uint256"
        }
      ],
      "stateMutability": "view",
      "type": "function"
    },
    {
      "inputs": [],
      "name": "getLastCertID",
      "outputs": [
        {
          "internalType": "uint256",
          "name": "",
          "type": "uint256"
        }
      ],
      "stateMutability": "view",
      "type": "function"
    },
    {
      "inputs": [
        {
          "internalType": "string",
          "name": "studentName",
          "type": "string"
        },
        {
          "internalType": "string",
          "name": "courseName",
          "type": "string"
        },
        {
          "internalType": "string",
          "name": "issueDate",
          "type": "string"
        }
      ],
      "name": "issueCertificate",
      "outputs": [
        {
          "internalType": "uint256",
          "name": "",
          "type": "uint256"
        }
      ],
      "stateMutability": "nonpayable",
      "type": "function"
    },
    {
      "inputs": [
        {
          "internalType": "uint256",
          "name": "certID",
          "type": "uint256"
        }
      ],
      "name": "revokeCertificate",
      "outputs": [],
      "stateMutability": "nonpayable",
      "type": "function"
    },
    {
      "inputs": [],
      "name": "university",
      "outputs": [
        {
          "internalType": "address",
          "name": "",
          "type": "address"
        }
      ],
      "stateMutability": "view",
      "type": "function"
    },
    {
      "inputs": [
        {
          "internalType": "uint256",
          "name": "certID",
          "type": "uint256"
        }
      ],
      "name": "verifyCertificate",
      "outputs": [
        {
          "internalType": "bool",
          "name": "",
          "type": "bool"
        }
      ],
      "stateMutability": "view",
      "type": "function"
    }
  ],
  "bytecode": "0x608060405234801561001057600080fd5b50336000806101000a81548173ffffffffffffffffffffffffffffffffffffffff021916908373ffffffffffffffffffffffffffffffffffffffff160217905550610ea4806100606000396000f3fe608060405234801561001057600080fd5b50600436106100885760003560e01c80638809f7271161005b5780638809f7271461012a578063ae12894e14610148578063beec1caa14610166578063c0e41f001461019657610088565b806306f5497e1461008d5780631692a942146100a957806352d7b89c146100d9578063663b3e22146100f7575b600080fd5b6100a760048036038101906100a291906108cd565b6101b4565b005b6100c360048036038101906100be91906108cd565b6102d7565b6040516100d09190610ac3565b60405180910390f35b6100e1610304565b6040516100ee9190610bb8565b60405180910390f35b610111600480360381019061010c91906108cd565b61030a565b6040516101219493929190610ade565b60405180910390f35b6101326104df565b60405161013f9190610bb8565b60405180910390f35b6101506104e9565b60405161015d9190610aa8565b60405180910390f35b610180600480360381019061017b9190610836565b61050d565b60405161018d9190610bb8565b60405180910390f35b61019e6106bc565b6040516101ab9190610bb8565b60405180910390f35b60008054906101000a900473ffffffffffffffffffffffffffffffffffffffff1673ffffffffffffffffffffffffffffffffffffffff163373ffffffffffffffffffffffffffffffffffffffff1614610242576040517f08c379a000000000000000000000000000000000000000000000000000000000815260040161023990610b38565b60405180910390fd5b6001600082815260200190815260200160002060030160009054906101000a900460ff166102a5576040517f08c379a000000000000000000000000000000000000000000000000000000000815260040161029c90610b98565b60405180910390fd5b60006001600083815260200190815260200160002060030160006101000a81548160ff02191690831515021790555050565b60006001600083815260200190815260200160002060030160009054906101000a900460ff169050919050565b60025481565b600160205280600052604060002060009150905080600001805461032d90610d3e565b80601f016020809104026020016040519081016040528092919081815260200182805461035990610d3e565b80156103a65780601f1061037b576101008083540402835291602001916103a6565b820191906000526020600020905b81548152906001019060200180831161038957829003601f168201915b5050505050908060010180546103bb90610d3e565b80601f01602080910402602001604051908101604052809291908181526020018280546103e790610d3e565b80156104345780601f1061040957610100808354040283529160200191610434565b820191906000526020600020905b81548152906001019060200180831161041757829003601f168201915b50505050509080600201805461044990610d3e565b80601f016020809104026020016040519081016040528092919081815260200182805461047590610d3e565b80156104c25780601f10610497576101008083540402835291602001916104c2565b820191906000526020600020905b8154815290600101906020018083116104a557829003601f168201915b5050505050908060030160009054906101000a900460ff16905084565b6000600254905090565b60008054906101000a900473ffffffffffffffffffffffffffffffffffffffff1681565b60008060009054906101000a900473ffffffffffffffffffffffffffffffffffffffff1673ffffffffffffffffffffffffffffffffffffffff163373ffffffffffffffffffffffffffffffffffffffff161461059e576040517f08c379a000000000000000000000000000000000000000000000000000000000815260040161059590610b78565b60405180910390fd5b60405180608001604052808581526020018481526020018381526020016001151581525060016000600254815260200190815260200160002060008201518160000190805190602001906105f3929190610716565b506020820151816001019080519060200190610610929190610716565b50604082015181600201908051906020019061062d929190610716565b5060608201518160030160006101000a81548160ff0219169083151502179055509050507f82e047af96f6b7e5a52ea238aee0ca4188211301535ddf1fe126e140df6421b460025485604051610684929190610bd3565b60405180910390a16002600081548092919061069f90610d70565b919050555060016002546106b39190610c80565b90509392505050565b60008060025411610702576040517f08c379a00000000000000000000000000000000000000000000000000000000081526004016106f990610b58565b60405180910390fd5b60016002546107119190610c80565b905090565b82805461072290610d3e565b90600052602060002090601f016020900481019282610744576000855561078b565b82601f1061075d57805160ff191683800117855561078b565b8280016001018555821561078b579182015b8281111561078a57825182559160200191906001019061076f565b5b509050610798919061079c565b5090565b5b808211156107b557600081600090555060010161079d565b5090565b60006107cc6107c784610c34565b610c03565b9050828152602081018484840111156107e457600080fd5b6107ef848285610cfc565b509392505050565b600082601f83011261080857600080fd5b81356108188482602086016107b9565b91505092915050565b60008135905061083081610e57565b92915050565b60008060006060848603121561084b57600080fd5b600084013567ffffffffffffffff81111561086557600080fd5b610871868287016107f7565b935050602084013567ffffffffffffffff81111561088e57600080fd5b61089a868287016107f7565b925050604084013567ffffffffffffffff8111156108b757600080fd5b6108c3868287016107f7565b9150509250925092565b6000602082840312156108df57600080fd5b60006108ed84828501610821565b91505092915050565b6108ff81610cb4565b82525050565b61090e81610cc6565b82525050565b600061091f82610c64565b6109298185610c6f565b9350610939818560208601610d0b565b61094281610e46565b840191505092915050565b600061095a602b83610c6f565b91507f4f6e6c792074686520756e69766572736974792063616e207265766f6b65206360008301527f65727469666963617465730000000000000000000000000000000000000000006020830152604082019050919050565b60006109c0601383610c6f565b91507f4e6f2063657274696669636174657320796574000000000000000000000000006000830152602082019050919050565b6000610a00602a83610c6f565b91507f4f6e6c792074686520756e69766572736974792063616e20697373756520636560008301527f72746966696361746573000000000000000000000000000000000000000000006020830152604082019050919050565b6000610a66600f83610c6f565b91507f416c7265616479207265766f6b656400000000000000000000000000000000006000830152602082019050919050565b610aa281610cf2565b82525050565b6000602082019050610abd60008301846108f6565b92915050565b6000602082019050610ad86000830184610905565b92915050565b60006080820190508181036000830152610af88187610914565b90508181036020830152610b0c8186610914565b90508181036040830152610b208185610914565b9050610b2f6060830184610905565b95945050505050565b60006020820190508181036000830152610b518161094d565b9050919050565b60006020820190508181036000830152610b71816109b3565b9050919050565b60006020820190508181036000830152610b91816109f3565b9050919050565b60006020820190508181036000830152610bb181610a59565b9050919050565b6000602082019050610bcd6000830184610a99565b92915050565b6000604082019050610be86000830185610a99565b8181036020830152610bfa8184610914565b90509392505050565b6000604051905081810181811067ffffffffffffffff82111715610c2a57610c29610e17565b5b8060405250919050565b600067ffffffffffffffff821115610c4f57610c4e610e17565b5b601f19601f8301169050602081019050919050565b600081519050919050565b600082825260208201905092915050565b6000610c8b82610cf2565b9150610c9683610cf2565b925082821015610ca957610ca8610db9565b5b828203905092915050565b6000610cbf82610cd2565b9050919050565b60008115159050919050565b600073ffffffffffffffffffffffffffffffffffffffff82169050919050565b6000819050919050565b82818337600083830152505050565b60005b83811015610d29578082015181840152602081019050610d0e565b83811115610d38576000848401525b50505050565b60006002820490506001821680610d5657607f821691505b60208210811415610d6a57610d69610de8565b5b50919050565b6000610d7b82610cf2565b91507fffffffffffffffffffffffffffffffffffffffffffffffffffffffffffffffff821415610dae57610dad610db9565b5b600182019050919050565b7f4e487b7100000000000000000000000000000000000000000000000000000000600052601160045260246000fd5b7f4e487b7100000000000000000000000000000000000000000000000000000000600052602260045260246000fd5b7f4e487b7100000000000000000000000000000000000000000000000000000000600052604160045260246000fd5b6000601f19601f8301169050919050565b610e6081610cf2565b8114610e6b57600080fd5b5056fea26469706673582212207928592dfe5722cfbd4aedc0cb6d68a3e1f67c6af1b07b4156d55bf00e5324ed64736f6c63430008000033",
  "linkReferences": {},
  "deployedLinkReferences": {}
}